{
  "_format": "hh-sol-artifact-1",
  "contractName": "MyToken",
  "sourceName": "contracts/MyToken.sol",
  "abi": [
    {
      "inputs": [],
      "stateMutability": "nonpayable",
      "type": "constructor"
    },
    {
      "inputs": [
        {
          "internalType": "address",
          "name": "spender",
          "type": "address"
        },
        {
          "internalType": "uint256",
          "name": "allowance",
          "type": "uint256"
        },
        {
          "internalType": "uint256",
          "name": "needed",
          "type": "uint256"
        }
      ],
      "name": "ERC20InsufficientAllowance",
      "type": "error"
    },
    {
      "inputs": [
        {
          "internalType": "address",
          "name": "sender",
          "type": "address"
        },
        {
          "internalType": "uint256",
          "name": "balance",
          "type": "uint256"
        },
        {
          "internalType": "uint256",
          "name": "needed",
          "type": "uint256"
        }
      ],
      "name": "ERC20InsufficientBalance",
      "type": "error"
    },
    {
      "inputs": [
        {
          "internalType": "address",
          "name": "approver",
          "type": "address"
        }
      ],
      "name": "ERC20InvalidApprover",
      "type": "error"
    },
    {
      "inputs": [
        {
          "internalType": "address",
          "name": "receiver",
          "type": "address"
        }
      ],
      "name": "ERC20InvalidReceiver",
      "type": "error"
    },
    {
      "inputs": [
        {
          "internalType": "address",
          "name": "sender",
          "type": "address"
        }
      ],
      "name": "ERC20InvalidSender",
      "type": "error"
    },
    {
      "inputs": [
        {
          "internalType": "address",
          "name": "spender",
          "type": "address"
        }
      ],
      "name": "ERC20InvalidSpender",
      "type": "error"
    },
    {
      "inputs": [
        {
          "internalType": "address",
          "name": "owner",
          "type": "address"
        }
      ],
      "name": "OwnableInvalidOwner",
      "type": "error"
    },
    {
      "inputs": [
        {
          "internalType": "address",
          "name": "account",
          "type": "address"
        }
      ],
      "name": "OwnableUnauthorizedAccount",
      "type": "error"
    },
    {
      "anonymous": false,
      "inputs": [
        {
          "indexed": true,
          "internalType": "address",
          "name": "owner",
          "type": "address"
        },
        {
          "indexed": true,
          "internalType": "address",
          "name": "spender",
          "type": "address"
        },
        {
          "indexed": false,
          "internalType": "uint256",
          "name": "value",
          "type": "uint256"
        }
      ],
      "name": "Approval",
      "type": "event"
    },
    {
      "anonymous": false,
      "inputs": [
        {
          "indexed": true,
          "internalType": "address",
          "name": "previousOwner",
          "type": "address"
        },
        {
          "indexed": true,
          "internalType": "address",
          "name": "newOwner",
          "type": "address"
        }
      ],
      "name": "OwnershipTransferred",
      "type": "event"
    },
    {
      "anonymous": false,
      "inputs": [
        {
          "indexed": true,
          "internalType": "address",
          "name": "from",
          "type": "address"
        },
        {
          "indexed": true,
          "internalType": "address",
          "name": "to",
          "type": "address"
        },
        {
          "indexed": false,
          "internalType": "uint256",
          "name": "value",
          "type": "uint256"
        }
      ],
      "name": "Transfer",
      "type": "event"
    },
    {
      "inputs": [
        {
          "internalType": "address",
          "name": "owner",
          "type": "address"
        },
        {
          "internalType": "address",
          "name": "spender",
          "type": "address"
        }
      ],
      "name": "allowance",
      "outputs": [
        {
          "internalType": "uint256",
          "name": "",
          "type": "uint256"
        }
      ],
      "stateMutability": "view",
      "type": "function"
    },
    {
      "inputs": [
        {
          "internalType": "address",
          "name": "spender",
          "type": "address"
        },
        {
          "internalType": "uint256",
          "name": "value",
          "type": "uint256"
        }
      ],
      "name": "approve",
      "outputs": [
        {
          "internalType": "bool",
          "name": "",
          "type": "bool"
        }
      ],
      "stateMutability": "nonpayable",
      "type": "function"
    },
    {
      "inputs": [
        {
          "internalType": "address",
          "name": "account",
          "type": "address"
        }
      ],
      "name": "balanceOf",
      "outputs": [
        {
          "internalType": "uint256",
          "name": "",
          "type": "uint256"
        }
      ],
      "stateMutability": "view",
      "type": "function"
    },
    {
      "inputs": [],
      "name": "claimReward",
      "outputs": [],
      "stateMutability": "nonpayable",
      "type": "function"
    },
    {
      "inputs": [],
      "name": "decimals",
      "outputs": [
        {
          "internalType": "uint8",
          "name": "",
          "type": "uint8"
        }
      ],
      "stateMutability": "view",
      "type": "function"
    },
    {
      "inputs": [],
      "name": "name",
      "outputs": [
        {
          "internalType": "string",
          "name": "",
          "type": "string"
        }
      ],
      "stateMutability": "view",
      "type": "function"
    },
    {
      "inputs": [],
      "name": "owner",
      "outputs": [
        {
          "internalType": "address",
          "name": "",
          "type": "address"
        }
      ],
      "stateMutability": "view",
      "type": "function"
    },
    {
      "inputs": [],
      "name": "renounceOwnership",
      "outputs": [],
      "stateMutability": "nonpayable",
      "type": "function"
    },
    {
      "inputs": [],
      "name": "rewardRatePerBlock",
      "outputs": [
        {
          "internalType": "uint256",
          "name": "",
          "type": "uint256"
        }
      ],
      "stateMutability": "view",
      "type": "function"
    },
    {
      "inputs": [
        {
          "internalType": "uint256",
          "name": "_amount",
          "type": "uint256"
        }
      ],
      "name": "stake",
      "outputs": [],
      "stateMutability": "nonpayable",
      "type": "function"
    },
    {
      "inputs": [
        {
          "internalType": "address",
          "name": "",
          "type": "address"
        }
      ],
      "name": "stakedBalance",
      "outputs": [
        {
          "internalType": "uint256",
          "name": "",
          "type": "uint256"
        }
      ],
      "stateMutability": "view",
      "type": "function"
    },
    {
      "inputs": [
        {
          "internalType": "address",
          "name": "",
          "type": "address"
        }
      ],
      "name": "stakingRewards",
      "outputs": [
        {
          "internalType": "uint256",
          "name": "",
          "type": "uint256"
        }
      ],
      "stateMutability": "view",
      "type": "function"
    },
    {
      "inputs": [
        {
          "internalType": "address",
          "name": "",
          "type": "address"
        }
      ],
      "name": "stakingStartBlock",
      "outputs": [
        {
          "internalType": "uint256",
          "name": "",
          "type": "uint256"
        }
      ],
      "stateMutability": "view",
      "type": "function"
    },
    {
      "inputs": [],
      "name": "symbol",
      "outputs": [
        {
          "internalType": "string",
          "name": "",
          "type": "string"
        }
      ],
      "stateMutability": "view",
      "type": "function"
    },
    {
      "inputs": [],
      "name": "totalSupply",
      "outputs": [
        {
          "internalType": "uint256",
          "name": "",
          "type": "uint256"
        }
      ],
      "stateMutability": "view",
      "type": "function"
    },
    {
      "inputs": [
        {
          "internalType": "address",
          "name": "to",
          "type": "address"
        },
        {
          "internalType": "uint256",
          "name": "value",
          "type": "uint256"
        }
      ],
      "name": "transfer",
      "outputs": [
        {
          "internalType": "bool",
          "name": "",
          "type": "bool"
        }
      ],
      "stateMutability": "nonpayable",
      "type": "function"
    },
    {
      "inputs": [
        {
          "internalType": "address",
          "name": "from",
          "type": "address"
        },
        {
          "internalType": "address",
          "name": "to",
          "type": "address"
        },
        {
          "internalType": "uint256",
          "name": "value",
          "type": "uint256"
        }
      ],
      "name": "transferFrom",
      "outputs": [
        {
          "internalType": "bool",
          "name": "",
          "type": "bool"
        }
      ],
      "stateMutability": "nonpayable",
      "type": "function"
    },
    {
      "inputs": [
        {
          "internalType": "address",
          "name": "newOwner",
          "type": "address"
        }
      ],
      "name": "transferOwnership",
      "outputs": [],
      "stateMutability": "nonpayable",
      "type": "function"
    },
    {
      "inputs": [
        {
          "internalType": "uint256",
          "name": "_amount",
          "type": "uint256"
        }
      ],
      "name": "unstake",
      "outputs": [],
      "stateMutability": "nonpayable",
      "type": "function"
    },
    {
      "inputs": [],
      "name": "viewReward",
      "outputs": [
        {
          "internalType": "uint256",
          "name": "",
          "type": "uint256"
        }
      ],
      "stateMutability": "view",
      "type": "function"
    }
  ],
  "bytecode": "0x6080604052600a60095534801561001557600080fd5b50336040518060400160405280600781526020017f4d79546f6b656e000000000000000000000000000000000000000000000000008152506040518060400160405280600381526020017f4d544b000000000000000000000000000000000000000000000000000000000081525081600390816100929190610735565b5080600490816100a29190610735565b505050600073ffffffffffffffffffffffffffffffffffffffff168173ffffffffffffffffffffffffffffffffffffffff16036101175760006040517f1e4fbdf700000000000000000000000000000000000000000000000000000000815260040161010e9190610848565b60405180910390fd5b6101268161016960201b60201c565b50600061013761022f60201b60201c565b600a61014391906109d2565b620f42406101519190610a1d565b9050610163338261023860201b60201c565b50610af4565b6000600560009054906101000a900473ffffffffffffffffffffffffffffffffffffffff16905081600560006101000a81548173ffffffffffffffffffffffffffffffffffffffff021916908373ffffffffffffffffffffffffffffffffffffffff1602179055508173ffffffffffffffffffffffffffffffffffffffff168173ffffffffffffffffffffffffffffffffffffffff167f8be0079c531659141344cd1fd0a4f28419497f9722a3daafe3b4186f6b6457e060405160405180910390a35050565b60006012905090565b600073ffffffffffffffffffffffffffffffffffffffff168273ffffffffffffffffffffffffffffffffffffffff16036102aa5760006040517fec442f050000000000000000000000000000000000000000000000000000000081526004016102a19190610848565b60405180910390fd5b6102bc600083836102c060201b60201c565b5050565b600073ffffffffffffffffffffffffffffffffffffffff168373ffffffffffffffffffffffffffffffffffffffff16036103125780600260008282546103069190610a5f565b925050819055506103e5565b60008060008573ffffffffffffffffffffffffffffffffffffffff1673ffffffffffffffffffffffffffffffffffffffff1681526020019081526020016000205490508181101561039e578381836040517fe450d38c00000000000000000000000000000000000000000000000000000000815260040161039593929190610aa2565b60405180910390fd5b8181036000808673ffffffffffffffffffffffffffffffffffffffff1673ffffffffffffffffffffffffffffffffffffffff16815260200190815260200160002081905550505b600073ffffffffffffffffffffffffffffffffffffffff168273ffffffffffffffffffffffffffffffffffffffff160361042e578060026000828254039250508190555061047b565b806000808473ffffffffffffffffffffffffffffffffffffffff1673ffffffffffffffffffffffffffffffffffffffff168152602001908152602001600020600082825401925050819055505b8173ffffffffffffffffffffffffffffffffffffffff168373ffffffffffffffffffffffffffffffffffffffff167fddf252ad1be2c89b69c2b068fc378daa952ba7f163c4a11628f55a4df523b3ef836040516104d89190610ad9565b60405180910390a3505050565b600081519050919050565b7f4e487b7100000000000000000000000000000000000000000000000000000000600052604160045260246000fd5b7f4e487b7100000000000000000000000000000000000000000000000000000000600052602260045260246000fd5b6000600282049050600182168061056657607f821691505b6020821081036105795761057861051f565b5b50919050565b60008190508160005260206000209050919050565b60006020601f8301049050919050565b600082821b905092915050565b6000600883026105e17fffffffffffffffffffffffffffffffffffffffffffffffffffffffffffffffff826105a4565b6105eb86836105a4565b95508019841693508086168417925050509392505050565b6000819050919050565b6000819050919050565b600061063261062d61062884610603565b61060d565b610603565b9050919050565b6000819050919050565b61064c83610617565b61066061065882610639565b8484546105b1565b825550505050565b600090565b610675610668565b610680818484610643565b505050565b5b818110156106a45761069960008261066d565b600181019050610686565b5050565b601f8211156106e9576106ba8161057f565b6106c384610594565b810160208510156106d2578190505b6106e66106de85610594565b830182610685565b50505b505050565b600082821c905092915050565b600061070c600019846008026106ee565b1980831691505092915050565b600061072583836106fb565b9150826002028217905092915050565b61073e826104e5565b67ffffffffffffffff811115610757576107566104f0565b5b610761825461054e565b61076c8282856106a8565b600060209050601f83116001811461079f576000841561078d578287015190505b6107978582610719565b8655506107ff565b601f1984166107ad8661057f565b60005b828110156107d5578489015182556001820191506020850194506020810190506107b0565b868310156107f257848901516107ee601f8916826106fb565b8355505b6001600288020188555050505b505050505050565b600073ffffffffffffffffffffffffffffffffffffffff82169050919050565b600061083282610807565b9050919050565b61084281610827565b82525050565b600060208201905061085d6000830184610839565b92915050565b7f4e487b7100000000000000000000000000000000000000000000000000000000600052601160045260246000fd5b60008160011c9050919050565b6000808291508390505b60018511156108e9578086048111156108c5576108c4610863565b5b60018516156108d45780820291505b80810290506108e285610892565b94506108a9565b94509492505050565b60008261090257600190506109be565b8161091057600090506109be565b816001811461092657600281146109305761095f565b60019150506109be565b60ff84111561094257610941610863565b5b8360020a91508482111561095957610958610863565b5b506109be565b5060208310610133831016604e8410600b84101617156109945782820a90508381111561098f5761098e610863565b5b6109be565b6109a1848484600161089f565b925090508184048111156109b8576109b7610863565b5b81810290505b9392505050565b600060ff82169050919050565b60006109dd82610603565b91506109e8836109c5565b9250610a157fffffffffffffffffffffffffffffffffffffffffffffffffffffffffffffffff84846108f2565b905092915050565b6000610a2882610603565b9150610a3383610603565b9250828202610a4181610603565b91508282048414831517610a5857610a57610863565b5b5092915050565b6000610a6a82610603565b9150610a7583610603565b9250828201905080821115610a8d57610a8c610863565b5b92915050565b610a9c81610603565b82525050565b6000606082019050610ab76000830186610839565b610ac46020830185610a93565b610ad16040830184610a93565b949350505050565b6000602082019050610aee6000830184610a93565b92915050565b611a6080610b036000396000f3fe608060405234801561001057600080fd5b506004361061012c5760003560e01c8063715018a6116100ad578063a9059cbb11610071578063a9059cbb14610335578063a9e84c1114610365578063b88a802f14610395578063dd62ed3e1461039f578063f2fde38b146103cf5761012c565b8063715018a6146102b55780638da5cb5b146102bf57806390870492146102dd57806395d89b41146102fb578063a694fc3a146103195761012c565b8063313ce567116100f4578063313ce567146101e957806334f2015d14610207578063499d7f9614610225578063602172671461025557806370a08231146102855761012c565b806306fdde0314610131578063095ea7b31461014f57806318160ddd1461017f57806323b872dd1461019d5780632e17de78146101cd575b600080fd5b6101396103eb565b6040516101469190611395565b60405180910390f35b61016960048036038101906101649190611450565b61047d565b60405161017691906114ab565b60405180910390f35b6101876104a0565b60405161019491906114d5565b60405180910390f35b6101b760048036038101906101b291906114f0565b6104aa565b6040516101c491906114ab565b60405180910390f35b6101e760048036038101906101e29190611543565b6104d9565b005b6101f161060a565b6040516101fe919061158c565b60405180910390f35b61020f610613565b60405161021c91906114d5565b60405180910390f35b61023f600480360381019061023a91906115a7565b610623565b60405161024c91906114d5565b60405180910390f35b61026f600480360381019061026a91906115a7565b61063b565b60405161027c91906114d5565b60405180910390f35b61029f600480360381019061029a91906115a7565b610653565b6040516102ac91906114d5565b60405180910390f35b6102bd61069b565b005b6102c76106af565b6040516102d491906115e3565b60405180910390f35b6102e56106d9565b6040516102f291906114d5565b60405180910390f35b6103036106df565b6040516103109190611395565b60405180910390f35b610333600480360381019061032e9190611543565b610771565b005b61034f600480360381019061034a9190611450565b6108a7565b60405161035c91906114ab565b60405180910390f35b61037f600480360381019061037a91906115a7565b6108ca565b60405161038c91906114d5565b60405180910390f35b61039d6108e2565b005b6103b960048036038101906103b491906115fe565b6109c8565b6040516103c691906114d5565b60405180910390f35b6103e960048036038101906103e491906115a7565b610a4f565b005b6060600380546103fa9061166d565b80601f01602080910402602001604051908101604052809291908181526020018280546104269061166d565b80156104735780601f1061044857610100808354040283529160200191610473565b820191906000526020600020905b81548152906001019060200180831161045657829003601f168201915b5050505050905090565b600080610488610ad5565b9050610495818585610add565b600191505092915050565b6000600254905090565b6000806104b5610ad5565b90506104c2858285610aef565b6104cd858585610b83565b60019150509392505050565b6000811161051c576040517f08c379a0000000000000000000000000000000000000000000000000000000008152600401610513906116ea565b60405180910390fd5b80600660003373ffffffffffffffffffffffffffffffffffffffff1673ffffffffffffffffffffffffffffffffffffffff16815260200190815260200160002054101561059e576040517f08c379a000000000000000000000000000000000000000000000000000000000815260040161059590611756565b60405180910390fd5b6105a9303383610b83565b80600660003373ffffffffffffffffffffffffffffffffffffffff1673ffffffffffffffffffffffffffffffffffffffff16815260200190815260200160002060008282546105f891906117a5565b925050819055506106076108e2565b50565b60006012905090565b600061061e33610c77565b905090565b60086020528060005260406000206000915090505481565b60066020528060005260406000206000915090505481565b60008060008373ffffffffffffffffffffffffffffffffffffffff1673ffffffffffffffffffffffffffffffffffffffff168152602001908152602001600020549050919050565b6106a3610d3a565b6106ad6000610dc1565b565b6000600560009054906101000a900473ffffffffffffffffffffffffffffffffffffffff16905090565b60095481565b6060600480546106ee9061166d565b80601f016020809104026020016040519081016040528092919081815260200182805461071a9061166d565b80156107675780601f1061073c57610100808354040283529160200191610767565b820191906000526020600020905b81548152906001019060200180831161074a57829003601f168201915b5050505050905090565b600081116107b4576040517f08c379a00000000000000000000000000000000000000000000000000000000081526004016107ab90611825565b60405180910390fd5b806107be33610653565b10156107ff576040517f08c379a00000000000000000000000000000000000000000000000000000000081526004016107f690611891565b60405180910390fd5b61080a333083610b83565b80600660003373ffffffffffffffffffffffffffffffffffffffff1673ffffffffffffffffffffffffffffffffffffffff168152602001908152602001600020600082825461085991906118b1565b9250508190555043600760003373ffffffffffffffffffffffffffffffffffffffff1673ffffffffffffffffffffffffffffffffffffffff1681526020019081526020016000208190555050565b6000806108b2610ad5565b90506108bf818585610b83565b600191505092915050565b60076020528060005260406000206000915090505481565b60006108ed33610c77565b905060008111610932576040517f08c379a000000000000000000000000000000000000000000000000000000000815260040161092990611931565b60405180910390fd5b61093c3382610e87565b6000600860003373ffffffffffffffffffffffffffffffffffffffff1673ffffffffffffffffffffffffffffffffffffffff1681526020019081526020016000208190555043600760003373ffffffffffffffffffffffffffffffffffffffff1673ffffffffffffffffffffffffffffffffffffffff1681526020019081526020016000208190555050565b6000600160008473ffffffffffffffffffffffffffffffffffffffff1673ffffffffffffffffffffffffffffffffffffffff16815260200190815260200160002060008373ffffffffffffffffffffffffffffffffffffffff1673ffffffffffffffffffffffffffffffffffffffff16815260200190815260200160002054905092915050565b610a57610d3a565b600073ffffffffffffffffffffffffffffffffffffffff168173ffffffffffffffffffffffffffffffffffffffff1603610ac95760006040517f1e4fbdf7000000000000000000000000000000000000000000000000000000008152600401610ac091906115e3565b60405180910390fd5b610ad281610dc1565b50565b600033905090565b610aea8383836001610f09565b505050565b6000610afb84846109c8565b90507fffffffffffffffffffffffffffffffffffffffffffffffffffffffffffffffff8114610b7d5781811015610b6d578281836040517ffb8f41b2000000000000000000000000000000000000000000000000000000008152600401610b6493929190611951565b60405180910390fd5b610b7c84848484036000610f09565b5b50505050565b600073ffffffffffffffffffffffffffffffffffffffff168373ffffffffffffffffffffffffffffffffffffffff1603610bf55760006040517f96c6fd1e000000000000000000000000000000000000000000000000000000008152600401610bec91906115e3565b60405180910390fd5b600073ffffffffffffffffffffffffffffffffffffffff168273ffffffffffffffffffffffffffffffffffffffff1603610c675760006040517fec442f05000000000000000000000000000000000000000000000000000000008152600401610c5e91906115e3565b60405180910390fd5b610c728383836110e0565b505050565b600080600760008473ffffffffffffffffffffffffffffffffffffffff1673ffffffffffffffffffffffffffffffffffffffff1681526020019081526020016000205443610cc591906117a5565b9050670de0b6b3a764000060095482600660008773ffffffffffffffffffffffffffffffffffffffff1673ffffffffffffffffffffffffffffffffffffffff16815260200190815260200160002054610d1e9190611988565b610d289190611988565b610d3291906119f9565b915050919050565b610d42610ad5565b73ffffffffffffffffffffffffffffffffffffffff16610d606106af565b73ffffffffffffffffffffffffffffffffffffffff1614610dbf57610d83610ad5565b6040517f118cdaa7000000000000000000000000000000000000000000000000000000008152600401610db691906115e3565b60405180910390fd5b565b6000600560009054906101000a900473ffffffffffffffffffffffffffffffffffffffff16905081600560006101000a81548173ffffffffffffffffffffffffffffffffffffffff021916908373ffffffffffffffffffffffffffffffffffffffff1602179055508173ffffffffffffffffffffffffffffffffffffffff168173ffffffffffffffffffffffffffffffffffffffff167f8be0079c531659141344cd1fd0a4f28419497f9722a3daafe3b4186f6b6457e060405160405180910390a35050565b600073ffffffffffffffffffffffffffffffffffffffff168273ffffffffffffffffffffffffffffffffffffffff1603610ef95760006040517fec442f05000000000000000000000000000000000000000000000000000000008152600401610ef091906115e3565b60405180910390fd5b610f05600083836110e0565b5050565b600073ffffffffffffffffffffffffffffffffffffffff168473ffffffffffffffffffffffffffffffffffffffff1603610f7b5760006040517fe602df05000000000000000000000000000000000000000000000000000000008152600401610f7291906115e3565b60405180910390fd5b600073ffffffffffffffffffffffffffffffffffffffff168373ffffffffffffffffffffffffffffffffffffffff1603610fed5760006040517f94280d62000000000000000000000000000000000000000000000000000000008152600401610fe491906115e3565b60405180910390fd5b81600160008673ffffffffffffffffffffffffffffffffffffffff1673ffffffffffffffffffffffffffffffffffffffff16815260200190815260200160002060008573ffffffffffffffffffffffffffffffffffffffff1673ffffffffffffffffffffffffffffffffffffffff1681526020019081526020016000208190555080156110da578273ffffffffffffffffffffffffffffffffffffffff168473ffffffffffffffffffffffffffffffffffffffff167f8c5be1e5ebec7d5bd14f71427d1e84f3dd0314c0f7b2291e5b200ac8c7c3b925846040516110d191906114d5565b60405180910390a35b50505050565b600073ffffffffffffffffffffffffffffffffffffffff168373ffffffffffffffffffffffffffffffffffffffff160361113257806002600082825461112691906118b1565b92505081905550611205565b60008060008573ffffffffffffffffffffffffffffffffffffffff1673ffffffffffffffffffffffffffffffffffffffff168152602001908152602001600020549050818110156111be578381836040517fe450d38c0000000000000000000000000000000000000000000000000000000081526004016111b593929190611951565b60405180910390fd5b8181036000808673ffffffffffffffffffffffffffffffffffffffff1673ffffffffffffffffffffffffffffffffffffffff16815260200190815260200160002081905550505b600073ffffffffffffffffffffffffffffffffffffffff168273ffffffffffffffffffffffffffffffffffffffff160361124e578060026000828254039250508190555061129b565b806000808473ffffffffffffffffffffffffffffffffffffffff1673ffffffffffffffffffffffffffffffffffffffff168152602001908152602001600020600082825401925050819055505b8173ffffffffffffffffffffffffffffffffffffffff168373ffffffffffffffffffffffffffffffffffffffff167fddf252ad1be2c89b69c2b068fc378daa952ba7f163c4a11628f55a4df523b3ef836040516112f891906114d5565b60405180910390a3505050565b600081519050919050565b600082825260208201905092915050565b60005b8381101561133f578082015181840152602081019050611324565b60008484015250505050565b6000601f19601f8301169050919050565b600061136782611305565b6113718185611310565b9350611381818560208601611321565b61138a8161134b565b840191505092915050565b600060208201905081810360008301526113af818461135c565b905092915050565b600080fd5b600073ffffffffffffffffffffffffffffffffffffffff82169050919050565b60006113e7826113bc565b9050919050565b6113f7816113dc565b811461140257600080fd5b50565b600081359050611414816113ee565b92915050565b6000819050919050565b61142d8161141a565b811461143857600080fd5b50565b60008135905061144a81611424565b92915050565b60008060408385031215611467576114666113b7565b5b600061147585828601611405565b92505060206114868582860161143b565b9150509250929050565b60008115159050919050565b6114a581611490565b82525050565b60006020820190506114c0600083018461149c565b92915050565b6114cf8161141a565b82525050565b60006020820190506114ea60008301846114c6565b92915050565b600080600060608486031215611509576115086113b7565b5b600061151786828701611405565b935050602061152886828701611405565b92505060406115398682870161143b565b9150509250925092565b600060208284031215611559576115586113b7565b5b60006115678482850161143b565b91505092915050565b600060ff82169050919050565b61158681611570565b82525050565b60006020820190506115a1600083018461157d565b92915050565b6000602082840312156115bd576115bc6113b7565b5b60006115cb84828501611405565b91505092915050565b6115dd816113dc565b82525050565b60006020820190506115f860008301846115d4565b92915050565b60008060408385031215611615576116146113b7565b5b600061162385828601611405565b925050602061163485828601611405565b9150509250929050565b7f4e487b7100000000000000000000000000000000000000000000000000000000600052602260045260246000fd5b6000600282049050600182168061168557607f821691505b6020821081036116985761169761163e565b5b50919050565b7f43616e6e6f7420756e7374616b65203020746f6b656e73000000000000000000600082015250565b60006116d4601783611310565b91506116df8261169e565b602082019050919050565b60006020820190508181036000830152611703816116c7565b9050919050565b7f496e73756666696369656e74207374616b65642062616c616e63650000000000600082015250565b6000611740601b83611310565b915061174b8261170a565b602082019050919050565b6000602082019050818103600083015261176f81611733565b9050919050565b7f4e487b7100000000000000000000000000000000000000000000000000000000600052601160045260246000fd5b60006117b08261141a565b91506117bb8361141a565b92508282039050818111156117d3576117d2611776565b5b92915050565b7f43616e6e6f74207374616b65203020746f6b656e730000000000000000000000600082015250565b600061180f601583611310565b915061181a826117d9565b602082019050919050565b6000602082019050818103600083015261183e81611802565b9050919050565b7f496e73756666696369656e7420746f6b656e2062616c616e6365000000000000600082015250565b600061187b601a83611310565b915061188682611845565b602082019050919050565b600060208201905081810360008301526118aa8161186e565b9050919050565b60006118bc8261141a565b91506118c78361141a565b92508282019050808211156118df576118de611776565b5b92915050565b7f4e6f207265776172647320617661696c61626c65000000000000000000000000600082015250565b600061191b601483611310565b9150611926826118e5565b602082019050919050565b6000602082019050818103600083015261194a8161190e565b9050919050565b600060608201905061196660008301866115d4565b61197360208301856114c6565b61198060408301846114c6565b949350505050565b60006119938261141a565b915061199e8361141a565b92508282026119ac8161141a565b915082820484148315176119c3576119c2611776565b5b5092915050565b7f4e487b7100000000000000000000000000000000000000000000000000000000600052601260045260246000fd5b6000611a048261141a565b9150611a0f8361141a565b925082611a1f57611a1e6119ca565b5b82820490509291505056fea2646970667358221220847b869234c18bfef71f32caab805b39cfb67861e03d6c4e231a22ac898db79f64736f6c634300081b0033",
  "linkReferences": {},
  "deployedLinkReferences": {}
}